{
  "_format": "hh-sol-artifact-1",
  "contractName": "NFT",
  "sourceName": "contracts/NFT.sol",
  "abi": [
    {
      "inputs": [],
      "stateMutability": "nonpayable",
      "type": "constructor"
    },
    {
      "anonymous": false,
      "inputs": [
        {
          "indexed": true,
          "internalType": "address",
          "name": "owner",
          "type": "address"
        },
        {
          "indexed": true,
          "internalType": "address",
          "name": "approved",
          "type": "address"
        },
        {
          "indexed": true,
          "internalType": "uint256",
          "name": "tokenId",
          "type": "uint256"
        }
      ],
      "name": "Approval",
      "type": "event"
    },
    {
      "anonymous": false,
      "inputs": [
        {
          "indexed": true,
          "internalType": "address",
          "name": "owner",
          "type": "address"
        },
        {
          "indexed": true,
          "internalType": "address",
          "name": "operator",
          "type": "address"
        },
        {
          "indexed": false,
          "internalType": "bool",
          "name": "approved",
          "type": "bool"
        }
      ],
      "name": "ApprovalForAll",
      "type": "event"
    },
    {
      "anonymous": false,
      "inputs": [
        {
          "indexed": true,
          "internalType": "address",
          "name": "from",
          "type": "address"
        },
        {
          "indexed": true,
          "internalType": "address",
          "name": "to",
          "type": "address"
        },
        {
          "indexed": true,
          "internalType": "uint256",
          "name": "tokenId",
          "type": "uint256"
        }
      ],
      "name": "Transfer",
      "type": "event"
    },
    {
      "inputs": [
        {
          "internalType": "address",
          "name": "to",
          "type": "address"
        },
        {
          "internalType": "uint256",
          "name": "tokenId",
          "type": "uint256"
        }
      ],
      "name": "approve",
      "outputs": [],
      "stateMutability": "nonpayable",
      "type": "function"
    },
    {
      "inputs": [
        {
          "internalType": "address",
          "name": "owner",
          "type": "address"
        }
      ],
      "name": "balanceOf",
      "outputs": [
        {
          "internalType": "uint256",
          "name": "",
          "type": "uint256"
        }
      ],
      "stateMutability": "view",
      "type": "function"
    },
    {
      "inputs": [],
      "name": "baseTokenURI",
      "outputs": [
        {
          "internalType": "string",
          "name": "",
          "type": "string"
        }
      ],
      "stateMutability": "view",
      "type": "function"
    },
    {
      "inputs": [
        {
          "internalType": "uint256",
          "name": "tokenId",
          "type": "uint256"
        }
      ],
      "name": "getApproved",
      "outputs": [
        {
          "internalType": "address",
          "name": "",
          "type": "address"
        }
      ],
      "stateMutability": "view",
      "type": "function"
    },
    {
      "inputs": [
        {
          "internalType": "address",
          "name": "owner",
          "type": "address"
        },
        {
          "internalType": "address",
          "name": "operator",
          "type": "address"
        }
      ],
      "name": "isApprovedForAll",
      "outputs": [
        {
          "internalType": "bool",
          "name": "",
          "type": "bool"
        }
      ],
      "stateMutability": "view",
      "type": "function"
    },
    {
      "inputs": [
        {
          "internalType": "address",
          "name": "recipient",
          "type": "address"
        }
      ],
      "name": "mintTo",
      "outputs": [
        {
          "internalType": "uint256",
          "name": "",
          "type": "uint256"
        }
      ],
      "stateMutability": "nonpayable",
      "type": "function"
    },
    {
      "inputs": [],
      "name": "name",
      "outputs": [
        {
          "internalType": "string",
          "name": "",
          "type": "string"
        }
      ],
      "stateMutability": "view",
      "type": "function"
    },
    {
      "inputs": [
        {
          "internalType": "uint256",
          "name": "tokenId",
          "type": "uint256"
        }
      ],
      "name": "ownerOf",
      "outputs": [
        {
          "internalType": "address",
          "name": "",
          "type": "address"
        }
      ],
      "stateMutability": "view",
      "type": "function"
    },
    {
      "inputs": [
        {
          "internalType": "address",
          "name": "from",
          "type": "address"
        },
        {
          "internalType": "address",
          "name": "to",
          "type": "address"
        },
        {
          "internalType": "uint256",
          "name": "tokenId",
          "type": "uint256"
        }
      ],
      "name": "safeTransferFrom",
      "outputs": [],
      "stateMutability": "nonpayable",
      "type": "function"
    },
    {
      "inputs": [
        {
          "internalType": "address",
          "name": "from",
          "type": "address"
        },
        {
          "internalType": "address",
          "name": "to",
          "type": "address"
        },
        {
          "internalType": "uint256",
          "name": "tokenId",
          "type": "uint256"
        },
        {
          "internalType": "bytes",
          "name": "data",
          "type": "bytes"
        }
      ],
      "name": "safeTransferFrom",
      "outputs": [],
      "stateMutability": "nonpayable",
      "type": "function"
    },
    {
      "inputs": [
        {
          "internalType": "address",
          "name": "operator",
          "type": "address"
        },
        {
          "internalType": "bool",
          "name": "approved",
          "type": "bool"
        }
      ],
      "name": "setApprovalForAll",
      "outputs": [],
      "stateMutability": "nonpayable",
      "type": "function"
    },
    {
      "inputs": [
        {
          "internalType": "string",
          "name": "_baseTokenURI",
          "type": "string"
        }
      ],
      "name": "setBaseTokenURI",
      "outputs": [],
      "stateMutability": "nonpayable",
      "type": "function"
    },
    {
      "inputs": [
        {
          "internalType": "bytes4",
          "name": "interfaceId",
          "type": "bytes4"
        }
      ],
      "name": "supportsInterface",
      "outputs": [
        {
          "internalType": "bool",
          "name": "",
          "type": "bool"
        }
      ],
      "stateMutability": "view",
      "type": "function"
    },
    {
      "inputs": [],
      "name": "symbol",
      "outputs": [
        {
          "internalType": "string",
          "name": "",
          "type": "string"
        }
      ],
      "stateMutability": "view",
      "type": "function"
    },
    {
      "inputs": [
        {
          "internalType": "uint256",
          "name": "tokenId",
          "type": "uint256"
        }
      ],
      "name": "tokenURI",
      "outputs": [
        {
          "internalType": "string",
          "name": "",
          "type": "string"
        }
      ],
      "stateMutability": "view",
      "type": "function"
    },
    {
      "inputs": [
        {
          "internalType": "address",
          "name": "from",
          "type": "address"
        },
        {
          "internalType": "address",
          "name": "to",
          "type": "address"
        },
        {
          "internalType": "uint256",
          "name": "tokenId",
          "type": "uint256"
        }
      ],
      "name": "transferFrom",
      "outputs": [],
      "stateMutability": "nonpayable",
      "type": "function"
    }
  ],
  "bytecode": "0x60806040523480156200001157600080fd5b506040518060400160405280600b81526020017f4e46545475746f7269616c0000000000000000000000000000000000000000008152506040518060400160405280600381526020017f4e46540000000000000000000000000000000000000000000000000000000000815250816000908051906020019062000096929190620000e0565b508060019080519060200190620000af929190620000e0565b5050506040518060200160405280600081525060079080519060200190620000d9929190620000e0565b50620001f5565b828054620000ee90620001bf565b90600052602060002090601f0160209004810192826200011257600085556200015e565b82601f106200012d57805160ff19168380011785556200015e565b828001600101855582156200015e579182015b828111156200015d57825182559160200191906001019062000140565b5b5090506200016d919062000171565b5090565b5b808211156200018c57600081600090555060010162000172565b5090565b7f4e487b7100000000000000000000000000000000000000000000000000000000600052602260045260246000fd5b60006002820490506001821680620001d857607f821691505b60208210811415620001ef57620001ee62000190565b5b50919050565b61285d80620002056000396000f3fe608060405234801561001057600080fd5b50600436106101005760003560e01c806370a0823111610097578063b88d4fde11610066578063b88d4fde146102bd578063c87b56dd146102d9578063d547cfb714610309578063e985e9c51461032757610100565b806370a0823114610223578063755edd171461025357806395d89b4114610283578063a22cb465146102a157610100565b806323b872dd116100d357806323b872dd1461019f57806330176e13146101bb57806342842e0e146101d75780636352211e146101f357610100565b806301ffc9a71461010557806306fdde0314610135578063081812fc14610153578063095ea7b314610183575b600080fd5b61011f600480360381019061011a91906118d2565b610357565b60405161012c919061191a565b60405180910390f35b61013d610439565b60405161014a91906119ce565b60405180910390f35b61016d60048036038101906101689190611a26565b6104cb565b60405161017a9190611a94565b60405180910390f35b61019d60048036038101906101989190611adb565b610511565b005b6101b960048036038101906101b49190611b1b565b610629565b005b6101d560048036038101906101d09190611ca3565b610689565b005b6101f160048036038101906101ec9190611b1b565b6106a3565b005b61020d60048036038101906102089190611a26565b6106c3565b60405161021a9190611a94565b60405180910390f35b61023d60048036038101906102389190611cec565b610775565b60405161024a9190611d28565b60405180910390f35b61026d60048036038101906102689190611cec565b61082d565b60405161027a9190611d28565b60405180910390f35b61028b61085a565b60405161029891906119ce565b60405180910390f35b6102bb60048036038101906102b69190611d6f565b6108ec565b005b6102d760048036038101906102d29190611e50565b610902565b005b6102f360048036038101906102ee9190611a26565b610964565b60405161030091906119ce565b60405180910390f35b6103116109cc565b60405161031e91906119ce565b60405180910390f35b610341600480360381019061033c9190611ed3565b610a5a565b60405161034e919061191a565b60405180910390f35b60007f80ac58cd000000000000000000000000000000000000000000000000000000007bffffffffffffffffffffffffffffffffffffffffffffffffffffffff1916827bffffffffffffffffffffffffffffffffffffffffffffffffffffffff1916148061042257507f5b5e139f000000000000000000000000000000000000000000000000000000007bffffffffffffffffffffffffffffffffffffffffffffffffffffffff1916827bffffffffffffffffffffffffffffffffffffffffffffffffffffffff1916145b80610432575061043182610aee565b5b9050919050565b60606000805461044890611f42565b80601f016020809104026020016040519081016040528092919081815260200182805461047490611f42565b80156104c15780601f10610496576101008083540402835291602001916104c1565b820191906000526020600020905b8154815290600101906020018083116104a457829003601f168201915b5050505050905090565b60006104d682610b58565b6004600083815260200190815260200160002060009054906101000a900473ffffffffffffffffffffffffffffffffffffffff169050919050565b600061051c826106c3565b90508073ffffffffffffffffffffffffffffffffffffffff168373ffffffffffffffffffffffffffffffffffffffff16141561058d576040517f08c379a000000000000000000000000000000000000000000000000000000000815260040161058490611fe6565b60405180910390fd5b8073ffffffffffffffffffffffffffffffffffffffff166105ac610ba3565b73ffffffffffffffffffffffffffffffffffffffff1614806105db57506105da816105d5610ba3565b610a5a565b5b61061a576040517f08c379a000000000000000000000000000000000000000000000000000000000815260040161061190612078565b60405180910390fd5b6106248383610bab565b505050565b61063a610634610ba3565b82610c64565b610679576040517f08c379a00000000000000000000000000000000000000000000000000000000081526004016106709061210a565b60405180910390fd5b610684838383610cf9565b505050565b806007908051906020019061069f9291906117c3565b5050565b6106be83838360405180602001604052806000815250610902565b505050565b6000806002600084815260200190815260200160002060009054906101000a900473ffffffffffffffffffffffffffffffffffffffff169050600073ffffffffffffffffffffffffffffffffffffffff168173ffffffffffffffffffffffffffffffffffffffff16141561076c576040517f08c379a000000000000000000000000000000000000000000000000000000000815260040161076390612176565b60405180910390fd5b80915050919050565b60008073ffffffffffffffffffffffffffffffffffffffff168273ffffffffffffffffffffffffffffffffffffffff1614156107e6576040517f08c379a00000000000000000000000000000000000000000000000000000000081526004016107dd90612208565b60405180910390fd5b600360008373ffffffffffffffffffffffffffffffffffffffff1673ffffffffffffffffffffffffffffffffffffffff168152602001908152602001600020549050919050565b60006108396006610f60565b60006108456006610f76565b90506108518382610f84565b80915050919050565b60606001805461086990611f42565b80601f016020809104026020016040519081016040528092919081815260200182805461089590611f42565b80156108e25780601f106108b7576101008083540402835291602001916108e2565b820191906000526020600020905b8154815290600101906020018083116108c557829003601f168201915b5050505050905090565b6108fe6108f7610ba3565b8383610fa2565b5050565b61091361090d610ba3565b83610c64565b610952576040517f08c379a00000000000000000000000000000000000000000000000000000000081526004016109499061210a565b60405180910390fd5b61095e8484848461110f565b50505050565b606061096f82610b58565b600061097961116b565b9050600081511161099957604051806020016040528060008152506109c4565b806109a3846111fd565b6040516020016109b4929190612264565b6040516020818303038152906040525b915050919050565b600780546109d990611f42565b80601f0160208091040260200160405190810160405280929190818152602001828054610a0590611f42565b8015610a525780601f10610a2757610100808354040283529160200191610a52565b820191906000526020600020905b815481529060010190602001808311610a3557829003601f168201915b505050505081565b6000600560008473ffffffffffffffffffffffffffffffffffffffff1673ffffffffffffffffffffffffffffffffffffffff16815260200190815260200160002060008373ffffffffffffffffffffffffffffffffffffffff1673ffffffffffffffffffffffffffffffffffffffff16815260200190815260200160002060009054906101000a900460ff16905092915050565b60007f01ffc9a7000000000000000000000000000000000000000000000000000000007bffffffffffffffffffffffffffffffffffffffffffffffffffffffff1916827bffffffffffffffffffffffffffffffffffffffffffffffffffffffff1916149050919050565b610b618161135e565b610ba0576040517f08c379a0000000000000000000000000000000000000000000000000000000008152600401610b9790612176565b60405180910390fd5b50565b600033905090565b816004600083815260200190815260200160002060006101000a81548173ffffffffffffffffffffffffffffffffffffffff021916908373ffffffffffffffffffffffffffffffffffffffff160217905550808273ffffffffffffffffffffffffffffffffffffffff16610c1e836106c3565b73ffffffffffffffffffffffffffffffffffffffff167f8c5be1e5ebec7d5bd14f71427d1e84f3dd0314c0f7b2291e5b200ac8c7c3b92560405160405180910390a45050565b600080610c70836106c3565b90508073ffffffffffffffffffffffffffffffffffffffff168473ffffffffffffffffffffffffffffffffffffffff161480610cb25750610cb18185610a5a565b5b80610cf057508373ffffffffffffffffffffffffffffffffffffffff16610cd8846104cb565b73ffffffffffffffffffffffffffffffffffffffff16145b91505092915050565b8273ffffffffffffffffffffffffffffffffffffffff16610d19826106c3565b73ffffffffffffffffffffffffffffffffffffffff1614610d6f576040517f08c379a0000000000000000000000000000000000000000000000000000000008152600401610d66906122fa565b60405180910390fd5b600073ffffffffffffffffffffffffffffffffffffffff168273ffffffffffffffffffffffffffffffffffffffff161415610ddf576040517f08c379a0000000000000000000000000000000000000000000000000000000008152600401610dd69061238c565b60405180910390fd5b610dea8383836113ca565b610df5600082610bab565b6001600360008573ffffffffffffffffffffffffffffffffffffffff1673ffffffffffffffffffffffffffffffffffffffff1681526020019081526020016000206000828254610e4591906123db565b925050819055506001600360008473ffffffffffffffffffffffffffffffffffffffff1673ffffffffffffffffffffffffffffffffffffffff1681526020019081526020016000206000828254610e9c919061240f565b92505081905550816002600083815260200190815260200160002060006101000a81548173ffffffffffffffffffffffffffffffffffffffff021916908373ffffffffffffffffffffffffffffffffffffffff160217905550808273ffffffffffffffffffffffffffffffffffffffff168473ffffffffffffffffffffffffffffffffffffffff167fddf252ad1be2c89b69c2b068fc378daa952ba7f163c4a11628f55a4df523b3ef60405160405180910390a4610f5b8383836113cf565b505050565b6001816000016000828254019250508190555050565b600081600001549050919050565b610f9e8282604051806020016040528060008152506113d4565b5050565b8173ffffffffffffffffffffffffffffffffffffffff168373ffffffffffffffffffffffffffffffffffffffff161415611011576040517f08c379a0000000000000000000000000000000000000000000000000000000008152600401611008906124b1565b60405180910390fd5b80600560008573ffffffffffffffffffffffffffffffffffffffff1673ffffffffffffffffffffffffffffffffffffffff16815260200190815260200160002060008473ffffffffffffffffffffffffffffffffffffffff1673ffffffffffffffffffffffffffffffffffffffff16815260200190815260200160002060006101000a81548160ff0219169083151502179055508173ffffffffffffffffffffffffffffffffffffffff168373ffffffffffffffffffffffffffffffffffffffff167f17307eab39ab6107e8899845ad3d59bd9653f200f220920489ca2b5937696c3183604051611102919061191a565b60405180910390a3505050565b61111a848484610cf9565b6111268484848461142f565b611165576040517f08c379a000000000000000000000000000000000000000000000000000000000815260040161115c90612543565b60405180910390fd5b50505050565b60606007805461117a90611f42565b80601f01602080910402602001604051908101604052809291908181526020018280546111a690611f42565b80156111f35780601f106111c8576101008083540402835291602001916111f3565b820191906000526020600020905b8154815290600101906020018083116111d657829003601f168201915b5050505050905090565b60606000821415611245576040518060400160405280600181526020017f30000000000000000000000000000000000000000000000000000000000000008152509050611359565b600082905060005b6000821461127757808061126090612563565b915050600a8261127091906125db565b915061124d565b60008167ffffffffffffffff81111561129357611292611b78565b5b6040519080825280601f01601f1916602001820160405280156112c55781602001600182028036833780820191505090505b5090505b60008514611352576001826112de91906123db565b9150600a856112ed919061260c565b60306112f9919061240f565b60f81b81838151811061130f5761130e61263d565b5b60200101907effffffffffffffffffffffffffffffffffffffffffffffffffffffffffffff1916908160001a905350600a8561134b91906125db565b94506112c9565b8093505050505b919050565b60008073ffffffffffffffffffffffffffffffffffffffff166002600084815260200190815260200160002060009054906101000a900473ffffffffffffffffffffffffffffffffffffffff1673ffffffffffffffffffffffffffffffffffffffff1614159050919050565b505050565b505050565b6113de83836115c6565b6113eb600084848461142f565b61142a576040517f08c379a000000000000000000000000000000000000000000000000000000000815260040161142190612543565b60405180910390fd5b505050565b60006114508473ffffffffffffffffffffffffffffffffffffffff166117a0565b156115b9578373ffffffffffffffffffffffffffffffffffffffff1663150b7a02611479610ba3565b8786866040518563ffffffff1660e01b815260040161149b94939291906126c1565b602060405180830381600087803b1580156114b557600080fd5b505af19250505080156114e657506040513d601f19601f820116820180604052508101906114e39190612722565b60015b611569573d8060008114611516576040519150601f19603f3d011682016040523d82523d6000602084013e61151b565b606091505b50600081511415611561576040517f08c379a000000000000000000000000000000000000000000000000000000000815260040161155890612543565b60405180910390fd5b805181602001fd5b63150b7a0260e01b7bffffffffffffffffffffffffffffffffffffffffffffffffffffffff1916817bffffffffffffffffffffffffffffffffffffffffffffffffffffffff1916149150506115be565b600190505b949350505050565b600073ffffffffffffffffffffffffffffffffffffffff168273ffffffffffffffffffffffffffffffffffffffff161415611636576040517f08c379a000000000000000000000000000000000000000000000000000000000815260040161162d9061279b565b60405180910390fd5b61163f8161135e565b1561167f576040517f08c379a000000000000000000000000000000000000000000000000000000000815260040161167690612807565b60405180910390fd5b61168b600083836113ca565b6001600360008473ffffffffffffffffffffffffffffffffffffffff1673ffffffffffffffffffffffffffffffffffffffff16815260200190815260200160002060008282546116db919061240f565b92505081905550816002600083815260200190815260200160002060006101000a81548173ffffffffffffffffffffffffffffffffffffffff021916908373ffffffffffffffffffffffffffffffffffffffff160217905550808273ffffffffffffffffffffffffffffffffffffffff16600073ffffffffffffffffffffffffffffffffffffffff167fddf252ad1be2c89b69c2b068fc378daa952ba7f163c4a11628f55a4df523b3ef60405160405180910390a461179c600083836113cf565b5050565b6000808273ffffffffffffffffffffffffffffffffffffffff163b119050919050565b8280546117cf90611f42565b90600052602060002090601f0160209004810192826117f15760008555611838565b82601f1061180a57805160ff1916838001178555611838565b82800160010185558215611838579182015b8281111561183757825182559160200191906001019061181c565b5b5090506118459190611849565b5090565b5b8082111561186257600081600090555060010161184a565b5090565b6000604051905090565b600080fd5b600080fd5b60007fffffffff0000000000000000000000000000000000000000000000000000000082169050919050565b6118af8161187a565b81146118ba57600080fd5b50565b6000813590506118cc816118a6565b92915050565b6000602082840312156118e8576118e7611870565b5b60006118f6848285016118bd565b91505092915050565b60008115159050919050565b611914816118ff565b82525050565b600060208201905061192f600083018461190b565b92915050565b600081519050919050565b600082825260208201905092915050565b60005b8381101561196f578082015181840152602081019050611954565b8381111561197e576000848401525b50505050565b6000601f19601f8301169050919050565b60006119a082611935565b6119aa8185611940565b93506119ba818560208601611951565b6119c381611984565b840191505092915050565b600060208201905081810360008301526119e88184611995565b905092915050565b6000819050919050565b611a03816119f0565b8114611a0e57600080fd5b50565b600081359050611a20816119fa565b92915050565b600060208284031215611a3c57611a3b611870565b5b6000611a4a84828501611a11565b91505092915050565b600073ffffffffffffffffffffffffffffffffffffffff82169050919050565b6000611a7e82611a53565b9050919050565b611a8e81611a73565b82525050565b6000602082019050611aa96000830184611a85565b92915050565b611ab881611a73565b8114611ac357600080fd5b50565b600081359050611ad581611aaf565b92915050565b60008060408385031215611af257611af1611870565b5b6000611b0085828601611ac6565b9250506020611b1185828601611a11565b9150509250929050565b600080600060608486031215611b3457611b33611870565b5b6000611b4286828701611ac6565b9350506020611b5386828701611ac6565b9250506040611b6486828701611a11565b9150509250925092565b600080fd5b600080fd5b7f4e487b7100000000000000000000000000000000000000000000000000000000600052604160045260246000fd5b611bb082611984565b810181811067ffffffffffffffff82111715611bcf57611bce611b78565b5b80604052505050565b6000611be2611866565b9050611bee8282611ba7565b919050565b600067ffffffffffffffff821115611c0e57611c0d611b78565b5b611c1782611984565b9050602081019050919050565b82818337600083830152505050565b6000611c46611c4184611bf3565b611bd8565b905082815260208101848484011115611c6257611c61611b73565b5b611c6d848285611c24565b509392505050565b600082601f830112611c8a57611c89611b6e565b5b8135611c9a848260208601611c33565b91505092915050565b600060208284031215611cb957611cb8611870565b5b600082013567ffffffffffffffff811115611cd757611cd6611875565b5b611ce384828501611c75565b91505092915050565b600060208284031215611d0257611d01611870565b5b6000611d1084828501611ac6565b91505092915050565b611d22816119f0565b82525050565b6000602082019050611d3d6000830184611d19565b92915050565b611d4c816118ff565b8114611d5757600080fd5b50565b600081359050611d6981611d43565b92915050565b60008060408385031215611d8657611d85611870565b5b6000611d9485828601611ac6565b9250506020611da585828601611d5a565b9150509250929050565b600067ffffffffffffffff821115611dca57611dc9611b78565b5b611dd382611984565b9050602081019050919050565b6000611df3611dee84611daf565b611bd8565b905082815260208101848484011115611e0f57611e0e611b73565b5b611e1a848285611c24565b509392505050565b600082601f830112611e3757611e36611b6e565b5b8135611e47848260208601611de0565b91505092915050565b60008060008060808587031215611e6a57611e69611870565b5b6000611e7887828801611ac6565b9450506020611e8987828801611ac6565b9350506040611e9a87828801611a11565b925050606085013567ffffffffffffffff811115611ebb57611eba611875565b5b611ec787828801611e22565b91505092959194509250565b60008060408385031215611eea57611ee9611870565b5b6000611ef885828601611ac6565b9250506020611f0985828601611ac6565b9150509250929050565b7f4e487b7100000000000000000000000000000000000000000000000000000000600052602260045260246000fd5b60006002820490506001821680611f5a57607f821691505b60208210811415611f6e57611f6d611f13565b5b50919050565b7f4552433732313a20617070726f76616c20746f2063757272656e74206f776e6560008201527f7200000000000000000000000000000000000000000000000000000000000000602082015250565b6000611fd0602183611940565b9150611fdb82611f74565b604082019050919050565b60006020820190508181036000830152611fff81611fc3565b9050919050565b7f4552433732313a20617070726f76652063616c6c6572206973206e6f7420746f60008201527f6b656e206f776e6572206e6f7220617070726f76656420666f7220616c6c0000602082015250565b6000612062603e83611940565b915061206d82612006565b604082019050919050565b6000602082019050818103600083015261209181612055565b9050919050565b7f4552433732313a2063616c6c6572206973206e6f7420746f6b656e206f776e6560008201527f72206e6f7220617070726f766564000000000000000000000000000000000000602082015250565b60006120f4602e83611940565b91506120ff82612098565b604082019050919050565b60006020820190508181036000830152612123816120e7565b9050919050565b7f4552433732313a20696e76616c696420746f6b656e2049440000000000000000600082015250565b6000612160601883611940565b915061216b8261212a565b602082019050919050565b6000602082019050818103600083015261218f81612153565b9050919050565b7f4552433732313a2061646472657373207a65726f206973206e6f74206120766160008201527f6c6964206f776e65720000000000000000000000000000000000000000000000602082015250565b60006121f2602983611940565b91506121fd82612196565b604082019050919050565b60006020820190508181036000830152612221816121e5565b9050919050565b600081905092915050565b600061223e82611935565b6122488185612228565b9350612258818560208601611951565b80840191505092915050565b60006122708285612233565b915061227c8284612233565b91508190509392505050565b7f4552433732313a207472616e736665722066726f6d20696e636f72726563742060008201527f6f776e6572000000000000000000000000000000000000000000000000000000602082015250565b60006122e4602583611940565b91506122ef82612288565b604082019050919050565b60006020820190508181036000830152612313816122d7565b9050919050565b7f4552433732313a207472616e7366657220746f20746865207a65726f2061646460008201527f7265737300000000000000000000000000000000000000000000000000000000602082015250565b6000612376602483611940565b91506123818261231a565b604082019050919050565b600060208201905081810360008301526123a581612369565b9050919050565b7f4e487b7100000000000000000000000000000000000000000000000000000000600052601160045260246000fd5b60006123e6826119f0565b91506123f1836119f0565b925082821015612404576124036123ac565b5b828203905092915050565b600061241a826119f0565b9150612425836119f0565b9250827fffffffffffffffffffffffffffffffffffffffffffffffffffffffffffffffff0382111561245a576124596123ac565b5b828201905092915050565b7f4552433732313a20617070726f766520746f2063616c6c657200000000000000600082015250565b600061249b601983611940565b91506124a682612465565b602082019050919050565b600060208201905081810360008301526124ca8161248e565b9050919050565b7f4552433732313a207472616e7366657220746f206e6f6e20455243373231526560008201527f63656976657220696d706c656d656e7465720000000000000000000000000000602082015250565b600061252d603283611940565b9150612538826124d1565b604082019050919050565b6000602082019050818103600083015261255c81612520565b9050919050565b600061256e826119f0565b91507fffffffffffffffffffffffffffffffffffffffffffffffffffffffffffffffff8214156125a1576125a06123ac565b5b600182019050919050565b7f4e487b7100000000000000000000000000000000000000000000000000000000600052601260045260246000fd5b60006125e6826119f0565b91506125f1836119f0565b925082612601576126006125ac565b5b828204905092915050565b6000612617826119f0565b9150612622836119f0565b925082612632576126316125ac565b5b828206905092915050565b7f4e487b7100000000000000000000000000000000000000000000000000000000600052603260045260246000fd5b600081519050919050565b600082825260208201905092915050565b60006126938261266c565b61269d8185612677565b93506126ad818560208601611951565b6126b681611984565b840191505092915050565b60006080820190506126d66000830187611a85565b6126e36020830186611a85565b6126f06040830185611d19565b81810360608301526127028184612688565b905095945050505050565b60008151905061271c816118a6565b92915050565b60006020828403121561273857612737611870565b5b60006127468482850161270d565b91505092915050565b7f4552433732313a206d696e7420746f20746865207a65726f2061646472657373600082015250565b6000612785602083611940565b91506127908261274f565b602082019050919050565b600060208201905081810360008301526127b481612778565b9050919050565b7f4552433732313a20746f6b656e20616c7265616479206d696e74656400000000600082015250565b60006127f1601c83611940565b91506127fc826127bb565b602082019050919050565b60006020820190508181036000830152612820816127e4565b905091905056fea2646970667358221220fcb1563f081d9b61b2aa95d8489362b258487e72ead6ffdd00e8f91e26316ff564736f6c63430008090033",
  "linkReferences": {},
  "deployedLinkReferences": {}
}